:100000000C9468000C9490000C9490000C94900058
:100010000C9490000C9490000C9490000C94900020
:100020000C9490000C9490000C9490000C94900010
:100030000C9490000C9490000C9490000C94900000
:100040000C94FB050C9490000C946B060C944506E4
:100050000C9490000C9490000C9490000C949000E0
:100060000C949D060C94900032323A31323A31347D
:10007000004665622020372032303233001F1C1FBB
:100080001E1F1E1F1F1E1F1E00000000250028002F
:100090002B00040404040404040402020202020209
:1000A000030303030303010204081020408001023C
:1000B00004081020010204081020000000080002BB
:1000C0000100000304070000000000000000C90751
:1000D00011241FBECFEFD8E0DEBFCDBF23E0AEEAD4
:1000E000B1E001C01D92A032B207E1F711E0A0E03B
:1000F000B1E0E6EFF8E102C005900D92AE3AB1072B
:10010000D9F710E0C8E6D0E004C02197FE010E94B4
:100110004E0BC736D107C9F70E9402080C94790C20
:100120000C94000090E0FC01E654FF4F2491FC0188
:10013000EA55FF4F3491FC01EE56FF4FE491EE2358
:10014000C9F0222339F0233001F1A8F4213019F14C
:10015000223029F1F0E0EE0FFF1FE857FF4FA59185
:10016000B4918FB7F894EC91611126C030953E237D
:100170003C938FBF08952730A9F02830C9F0243070
:1001800049F7809180008F7D03C0809180008F7738
:1001900080938000DFCF84B58F7784BDDBCF84B5BB
:1001A0008F7DFBCF8091B0008F778093B000D2CF4E
:1001B0008091B0008F7DF9CF3E2BDACF3FB7F89416
:1001C0008091FD019091FE01A091FF01B09100028C
:1001D00026B5A89B05C02F3F19F00196A11DB11DA2
:1001E0003FBFBA2FA92F982F8827BC01CD01620FDE
:1001F000711D811D911D42E0660F771F881F991F99
:100200004A95D1F7089508950895AF92BF92CF927D
:10021000DF92EF92FF920F931F93CF93DF936C01C6
:100220007B018B01040F151FEB015E01AE18BF08A7
:10023000C017D10759F06991D601ED91FC91019059
:10024000F081E02DC6010995892B79F7C501DF9171
:10025000CF911F910F91FF90EF90DF90CF90BF90C3
:10026000AF900895FC01538D448D252F30E0842FED
:1002700090E0821B930B541710F0CF9608950197CE
:100280000895FC01918D828D981761F0A28DAE0FBB
:10029000BF2FB11D5D968C91928D9F5F9F73928F42
:1002A00090E008958FEF9FEF0895FC01918D828D6E
:1002B000981731F0828DE80FF11D858D90E008953B
:1002C0008FEF9FEF0895FC01918D228D892F90E093
:1002D000805C9F4F821B91098F739927089583E754
:1002E00092E00E94630121E0892B09F420E0822F33
:1002F000089580E090E0892B29F00E946F01811120
:100300000C9400000895FC01A48DA80FB92FB11D15
:10031000A35ABF4F2C91848D90E001968F7399273B
:10032000848FA689B7892C93A089B1898C91837019
:1003300080648C93938D848D981306C00288F38912
:10034000E02D80818F7D80830895EF92FF920F933F
:100350001F93CF93DF93EC0181E0888F9B8D8C8D71
:1003600098131AC0E889F989808185FF15C09FB765
:10037000F894EE89FF896083E889F9898081837028
:10038000806480839FBF81E090E0DF91CF911F91D7
:100390000F91FF90EF900895F62E0B8D10E00F5FF8
:1003A0001F4F0F731127E02E8C8D8E110CC00FB6CE
:1003B00007FCFACFE889F989808185FFF5CFCE0166
:1003C0000E948301F1CFEB8DEC0FFD2FF11DE35A5D
:1003D000FF4FF0829FB7F8940B8FEA89FB898081E9
:1003E0008062CFCF682F83E792E00C94A501CF9372
:1003F000DF93EC01888D8823B9F0AA89BB89E8894D
:10040000F9898C9185FD03C0808186FD0DC00FB6F2
:1004100007FCF7CF8C9185FFF2CF808185FFEDCF70
:10042000CE010E948301E9CFDF91CF910895209101
:10043000CF01260F3327331F21323105ECF42091F1
:100440004902FC0190E080E0243069F082E00895E8
:10045000A091CF012191AC0141555E4FA40FB52F62
:10046000B11D2C930196861798F38091CF01680FE8
:100470006093CF0180E0089581E0089510924902D1
:1004800081E0809348021092230261E082E10E94A1
:10049000920061E083E10E949200E9EBF0E080814C
:1004A0008E7F808380818D7F808388E48093B800F5
:1004B00085E48093BC000895CF93DF9391E09093FF
:1004C000AE018823B9F0C091B800D091BA008091F4
:1004D000BC008A7B8093BC0060E082E10E949200B5
:1004E00060E083E10E9492000E943E02D093BA0035
:1004F000C093B800DF91CF9108958F929F92AF92F1
:10050000BF92CF92DF92EF92FF920F931F93CF9300
:10051000DF93D0917202D13208F0D7C0182FC0916A
:1005200071020E94DE006B017C0180914902811101
:100530006BC082E080934902109348028FEF809352
:10054000470210924602D0934502A1E5B2E0E5E2EF
:10055000F2E080E0D81391C010922402809124022E
:10056000CC0FC82BC093240280912302813009F064
:1005700088C0109223020E94DE006B017C018091F2
:1005800024028093BB0080914B0290914C02A09179
:100590004D02B0914E02892B8A2B8B2BA1F00E9429
:1005A000DE0000914B0210914C0220914D023091DF
:1005B0004E026C197D098E099F0906171707280737
:1005C000390708F442C08091BC0083FDD8CF85EC88
:1005D0008093BC000E94DE006B017C018091490287
:1005E000823009F450C0809147028F3F09F46FC0F8
:1005F00080914702803209F46CC0809147028033B9
:1006000009F469C084E026C080914B0290914C02AD
:10061000A0914D02B0914E02892B8A2B8B2B09F4AD
:1006200084CF0E94DE0080904B0290904C02A090FC
:100630004D02B0904E026C197D098E099F098616F5
:100640009706A806B90608F070CF80914A020E946A
:100650005C0285E0109250021092720210924F02DA
:10066000DF91CF911F910F91FF90EF90DF90CF908E
:10067000BF90AF909F908F9008959D9191938F5FC1
:1006800069CF85EEA5CF80914B0290914C02A0914D
:100690004D02B0914E02892B8A2B8B2B09F49ECFF1
:1006A0000E94DE0000914B0210914C0220914D02FD
:1006B00030914E026C197D098E099F0906171707A4
:1006C0002807390708F08ACFC0CF81E0C3CF80E088
:1006D000C1CF82E0BFCF83E0BDCF0895E091020299
:1006E00080910102E81730F4F0E0ED5FFD4F80816A
:1006F00090E008958FEF9FEF08959091020280910E
:1007000001022FEF3FEF981748F4E92FF0E0ED5F7B
:10071000FD4F208130E09F5F90930202C901089550
:100720008091010290910202891B990B0895CF924A
:10073000DF92EF92FF920F931F93CF93DF937C0191
:10074000CB018A0120914F02222389F0EB016B013A
:10075000C40ED51ECC15DD0569F06991D701ED9168
:10076000FC910190F081E02DC7010995F3CF642F32
:100770000E941702C801DF91CF911F910F91FF9046
:10078000EF90DF90CF900895CF93DF931F92CDB776
:10079000DEB7698320914F022223F9F02091720283
:1007A000203258F021E030E0FC013383228390E0D6
:1007B00080E00F90DF91CF91089580915002E82F53
:1007C000F0E0EF5AFD4F998190838F5F8093500244
:1007D0008093720281E090E0ECCF61E0CE0101965F
:1007E0000E941702F7CF90E080E008951F93CF9307
:1007F000DF93EA01122FDC0111968D919C91DC01AF
:10080000ED91FC910280F381E02D0995C817D9077D
:1008100029F4812F0E947D0291E0811190E0892FBF
:10082000DF91CF911F910895CF93DF93EC018B81DE
:100830008823A1F0888191E090934F028093710208
:10084000109250021092720281E00E947D0291E0AB
:10085000811190E0892FDF91CF91089510920202CB
:100860001092010210925002109272020E943E02F7
:1008700083E091E09093F5018093F40184E091E0AE
:100880009093F3018093F20181E08B83CE010E946B
:100890001404982F8111CECFDDCFFC0101900020F0
:1008A000E9F73197AF01481B590BBC0183E792E090
:1008B0000C9405018F929F92AF92BF920F931F935A
:1008C000CF93DF93CDB7DEB7A1970FB6F894DEBF15
:1008D0000FBECDBF19A2423008F44AE08E010F5D71
:1008E0001F4F842E912CB12CA12CA50194010E94A4
:1008F0002C0BE62FB901CA01EA30F4F4E05DD8010F
:10090000EE938D01232B242B252B79F790E080E0AB
:10091000109719F0CD010E944D04A1960FB6F894DE
:10092000DEBF0FBECDBFDF91CF911F910F91BF9062
:10093000AF909F908F900895E95CE1CF2F923F9206
:100940004F925F926F927F928F929F92AF92BF92DF
:10095000CF92DF92EF92FF920F931F93CF93DF938B
:100960005C011B016A01F12CE12CD50114968D91DB
:100970009C9186010E191F098017910708F48C01BC
:10098000F501D0810E94DE002B013C0180914902DB
:10099000811172C0C02F013208F0C0E2F1E0F09383
:1009A000490221E0C601801B910BE816F90608F404
:1009B00020E0209348028FEF809347021092460276
:1009C0008C0F80934502A1E0A09324028091240221
:1009D000DD0FD82BD093240280912302813009F0BF
:1009E00090C0109223020E94DE002B013C018091F6
:1009F00024028093BB0080914B0290914C02A09105
:100A00004D02B0914E02892B8A2B8B2BA1F00E94B4
:100A1000DE0020914B0230914C0240914D025091EA
:100A20004E02641975098609970926173707480782
:100A3000590708F442C08091BC0083FDD8CFB5ECC3
:100A4000B093BC000E94DE002B013C018091490262
:100A5000813009F45AC0809146028C1710F4C0917D
:100A60004602A5E2B2E0E3E0F2E080E08C1751F14B
:100A70009D9191938F5FFACF80914B0290914C02A0
:100A8000A0914D02B0914E02892B8A2B8B2B09F439
:100A90007DCF0E94DE0020914B0230914C024091AC
:100AA0004D0250914E02641975098609970926175F
:100AB00037074807590708F069CF80914A020E941A
:100AC0005C02C0E010920202C0930102C01711063E
:100AD00009F057C041018E0C9F1CE401CE0188191A
:100AE00099098017910798F5D50111968D919C91E0
:100AF000DC01ED91FC910284F385E02D0995899349
:100B0000EDCFE5EEE093BC009DCF80914B0290913C
:100B10004C02A0914D02B0914E02892B8A2B8B2B57
:100B200009F494CF0E94DE0020914B0230914C02D8
:100B300040914D0250914E0264197509860997093A
:100B4000261737074807590708F080CFB6CFE00EC1
:100B5000F11EEC14FD0408F408CF81E0DF91CF9181
:100B60001F910F91FF90EF90DF90CF90BF90AF90CB
:100B70009F908F907F906F905F904F903F902F90BD
:100B8000089580E0EBCF85ED8093BC0080914B020F
:100B900090914C02A0914D02B0914E020796A11D7A
:100BA000B11D23E0B695A795979587952A95D1F71E
:100BB0002091BC0024FD03C0109249020895409189
:100BC0004B0250914C0260914D0270914E02452BA8
:100BD000462B472B69F30097A105B10541F02AE2A6
:100BE0002A95F1F700C00197A109B109E1CF8091E1
:100BF0004A020C945C021F920F920FB60F921124BE
:100C00002F933F938F939F93AF93BF938091F9015D
:100C10009091FA01A091FB01B091FC013091F80193
:100C200023E0230F2D3758F50196A11DB11D209308
:100C3000F8018093F9019093FA01A093FB01B0931E
:100C4000FC018091FD019091FE01A091FF01B09106
:100C500000020196A11DB11D8093FD019093FE013C
:100C6000A093FF01B0930002BF91AF919F918F912C
:100C70003F912F910F900FBE0F901F90189526E86F
:100C8000230F0296A11DB11DD2CF1F920F920FB656
:100C90000F9211242F933F934F935F936F937F9302
:100CA0008F939F93AF93BF93EF93FF9383E792E06C
:100CB0000E948301FF91EF91BF91AF919F918F911E
:100CC0007F916F915F914F913F912F910F900FBE48
:100CD0000F901F9018951F920F920FB60F9211242C
:100CE0002F938F939F93EF93FF93E0918302F09163
:100CF00084028081E0918902F0918A0282FD1BC00A
:100D0000908180918C028F5F8F7320918D0282176A
:100D100041F0E0918C02F0E0ED58FD4F958F80930B
:100D20008C02FF91EF919F918F912F910F900FBEA9
:100D30000F901F9018958081F4CF1F920F920FB6DD
:100D40000F9211242F933F934F935F936F937F9351
:100D50008F939F93AF93BF93EF93FF938091B900CD
:100D6000887F803609F44AC0F0F5883209F4A7C0BC
:100D700018F5803109F49BC0B8F4882309F4F9C050
:100D8000883009F494C0FF91EF91BF91AF919F918A
:100D90008F917F916F915F914F913F912F910F9024
:100DA0000FBE0F901F901895883109F488C08032CB
:100DB00051F78093470214C0803409F49DC040F479
:100DC0008033B9F38833F9F68093470285ECB0C0DD
:100DD000803509F485C0883509F496C0883499F6C1
:100DE0000E94C305D0CF883909F48CC038F5883704
:100DF00029F050F4883611F0803729F683E080938B
:100E000049021092F10157C0883809F47BC080393B
:100E100019F0803809F0B7CF8091F101803208F0E5
:100E200071C0E091F10181E08E0F8093F10180911A
:100E3000BB00F0E0EF52FE4F80833DC0803B39F0B5
:100E4000E0F4803A09F479C0883A09F09CCF84E054
:100E5000809349021092D0011092CF01E091F401E9
:100E6000F091F50109958091CF0181110FC081E0CA
:100E70008093CF011092AF0109C0803C09F4A6CF46
:100E8000883C09F4A3CF883B09F07DCFE091D001E5
:100E900081E08E0F8093D001F0E0E155FE4F80811C
:100EA0008093BB009091D0018091CF0129C08091A7
:100EB00024028093BB0085EC8093BC0064CF9091AA
:100EC000460280914502981758F5E091460281E06C
:100ED0008E0F80934602F0E0EB5DFD4F8081E9CFFD
:100EE000E091460281E08E0F809346028091BB0024
:100EF000F0E0EB5DFD4F80839091460280914502CA
:100F00009817C8F285E8D8CFE091460281E08E0FAD
:100F1000809346028091BB00F0E0EB5DFD4F808343
:100F20008091480281115CCF81E08093230284EAA2
:100F30008093BC001092490226CF85EC8093BC00C0
:100F4000109249028091F101803230F4E091F10178
:100F5000F0E0EF52FE4F10826091F10170E0E091FD
:100F6000F201F091F30181ED91E009951092F10108
:100F70000ACF1092470234CFFC01908190539A30EF
:100F800008F090E0818180532AE0929F800D112427
:100F90000895E3E7F2E01382128288EE93E0A0E086
:100FA000B0E084839583A683B7832EE531E0318357
:100FB000208325EC30E03587248724EC30E0378728
:100FC000268720EC30E0318B208B21EC30E0338B16
:100FD000228B22EC30E0358B248B26EC30E0378BF3
:100FE000268B118E128E138E148EE0E1F3E01382A5
:100FF000128284839583A683B78380E791E09183EF
:1010000080830895CF93DF93CDB7DEB72C970FB6CB
:10101000F894DEBF0FBECDBF789484B5826084BDE6
:1010200084B5816084BD85B5826085BD85B58160EC
:1010300085BD80916E00816080936E00109281006A
:101040008091810082608093810080918100816025
:1010500080938100809180008160809380008091E6
:10106000B10084608093B1008091B0008160809372
:10107000B00080917A00846080937A0080917A0039
:10108000826080937A0080917A00816080937A00F8
:1010900080917A00806880937A001092C100E0917C
:1010A0008302F091840282E08083E0918302F091D8
:1010B00084021082E0917F02F09180021082E09120
:1010C0008102F091820280E1808310928B02E09194
:1010D0008702F091880286E08083E0918502F0919A
:1010E0008602808180618083E0918502F091860292
:1010F000808188608083E0918502F0918602808102
:1011000080688083E0918502F091860280818F7DE6
:1011100080838091F6019091F701009711F00E9471
:10112000F00B86E090E00E94540B8C0188E6F801F9
:10113000808380E193E092838183138280E290E058
:10114000958384831093F7010093F60110920202B5
:101150001092010210925002109272020E943E02FE
:1011600083E091E09093F5018093F40184E091E0B5
:101170009093F3018093F201EE24E394F801E3826B
:10118000C8010E941404811109C08EE791E00E94F9
:101190004D0480E991E00E944D04FFCF1C868091B0
:1011A000F6019091F701FC0124813581232B89F010
:1011B0002081E0924F02209371021092500210920F
:1011C000720221E041E050E0BE01645F7F4F0E9467
:1011D000F60341E050E08E010F5F1F4FB801809190
:1011E000F6019091F7010E949E04898190E0880F9A
:1011F000892F881F990B892B09F4AFC083E991E0EF
:101200000E944D0480E991E00E944D044BE050E0C3
:1012100061E770E0C8010E94030BCE010A960E94AC
:10122000BC07E82EE981E154E33130F50E2E000CC5
:10123000FF0BE35EF64F0C944E0B650A3C093C092C
:10124000800A3C09830A3C093C093C0930093C09F5
:101250003C096E0A7D0A7A0A3C093C093C09770A76
:101260008A81FF24F394813639F08B8156E0F52E84
:101270008E3611F047E0F42ECE0105960E94BC0791
:10128000D82E48E050E068E670E0C8010E94030BE9
:10129000C8010E94BC07C82ECE0104960E94BC075C
:1012A000B82ECE0107960E94BC07382F86E0F801C1
:1012B00011928A95E9F72AE0832F622F0E940C0B86
:1012C000982F880F890F880F830F8A838B2D0E9498
:1012D0000C0B982F880F890F880F8B0D8B838C2D0B
:1012E0000E940C0B982F880F890F880F8C0D8C8310
:1012F0008D2D0E940C0B982F880F890F880F8D0D54
:101300008E838F2D0E940C0B982F990F890F880FB9
:10131000F80EFF828E2D0E940C0B982F880F890FDC
:10132000880F8E0D88878091F6019091F701FC015E
:10133000248135812830310580F0208131E03093DF
:101340004F0220937102109250021092720221E01B
:1013500048E050E0B8010E94F6034DE6A42EBB24FD
:10136000B3945CE0352E60E0862E60E0962E222459
:1013700023941982E090F601F090F701F70184813F
:101380009581892BC1F0808120924F028093710258
:10139000109250021092720220E041E050E0B80139
:1013A000C7010E94F603882331F047E050E0B801FE
:1013B000C7010E949E0469816F77862F90E074E0D8
:1013C000959587957A95E1F7982F990F990FC82EE3
:1013D000C91ACC0CC60E6A81862F90E0E4E0959580
:1013E0008795EA95E1F7982F990F990F782E791A3A
:1013F000770C760E6B81862F90E0F4E095958795BB
:10140000FA95E1F7982F990F990F682E691A660CD3
:10141000660E8D81282F30E0A4E035952795AA959A
:10142000E1F7922F990F990FD22ED91ADD0CD80E11
:101430002E81822F90E0B4E095958795BA95E1F7DB
:10144000982F990F990F582E591A550C520E2F811B
:10145000822F90E034E0959587953A95E1F7982FA3
:10146000990F990F482E491A440C420EE42CF12C86
:10147000B7016053784F90E080E04AE00E945A0440
:101480008FE20E94F201652D70E090E080E04AE07A
:101490000E945A048FE20E94F2016D2D70E090E0EC
:1014A00080E04AE00E945A0487EA91E00E944D04DD
:1014B0002D2D30E0EDE7F0E081E0851538F59491D1
:1014C000290F311D8F5F3196F8CF8B8134E0F32ED9
:1014D000823709F4D1CE28E0F22ECECE8B8193E074
:1014E000F92E823709F4C8CE85E0F82EC5CEB9E0D2
:1014F000FB2EC2CEAAE0FA2EBFCEFBE0FF2EBCCE62
:10150000ECE0FE2EB9CE72E0F72EB6CEF2E0F51585
:1015100028F4842D837011F42F5F3F4FC701039689
:101520009695879596958795EA9CA001EB9C500D22
:10153000FA9C500D11244B5F5F4F840F951F820F53
:10154000931F67E070E00E94180B389E9001399E4F
:10155000300D1124C90180509F4F0E944D048AEA2A
:1015600091E00E944D04662D70E090E080E04AE03A
:101570000E945A048AE30E94F201672D70E090E015
:1015800080E04AE00E945A048AE30E94F2016C2D36
:1015900070E090E080E04AE00E945A0480E991E027
:1015A0000E944D040E94DE002B013C0158EEC52E26
:1015B00053E0D52EE12CF12C0E94DE006419750950
:1015C00086099709683E734081059105A8F321E0DB
:1015D000C21AD108E108F10888EE480E83E0581ECF
:1015E000611C711CC114D104E104F10429F78114B8
:1015F000910409F4BECE0E946F01882309F4B9CE8C
:101600000E940000B6CEFB01DC0102C005900D92E5
:1016100041505040D8F70895991B79E004C0991FB4
:10162000961708F0961B881F7A95C9F7809508953C
:10163000AA1BBB1B51E107C0AA1FBB1FA617B707F8
:1016400010F0A61BB70B881F991F5A95A9F7809514
:101650009095BC01CD010895A1E21A2EAA1BBB1BD7
:10166000FD010DC0AA1FBB1FEE1FFF1FA217B3076E
:10167000E407F50720F0A21BB30BE40BF50B661F84
:10168000771F881F991F1A9469F760957095809548
:1016900090959B01AC01BD01CF010895EE0FFF1F96
:1016A0000590F491E02D09940F931F93CF93DF934E
:1016B0008230910510F482E090E0E0911E03F091F9
:1016C0001F0330E020E0B0E0A0E0309799F421154E
:1016D000310509F44AC0281B390B24303105D8F5EF
:1016E0008A819B816115710589F1FB019383828356
:1016F000FE0111C0408151810281138148175907B1
:10170000E0F04817590799F4109761F012960C937E
:10171000129713961C933296CF01DF91CF911F91B0
:101720000F91089500931E0310931F03F4CF21150A
:10173000310551F04217530738F0A901DB019A0136
:10174000BD01DF01F801C1CFEF01F9CF90931F0375
:1017500080931E03CDCFFE01E20FF31F819391937F
:101760002250310939832883D7CF20911C0330912F
:101770001D03232B41F420915601309157013093E2
:101780001D0320931C032091540130915501211514
:10179000310541F42DB73EB74091580150915901A0
:1017A000241B350BE0911C03F0911D03E217F30796
:1017B000A0F42E1B3F0B2817390778F0AC014E5FC1
:1017C0005F4F2417350748F04E0F5F1F50931D03DE
:1017D00040931C03819391939FCFF0E0E0E09CCF76
:1017E000CF93DF930097E9F0FC01329713821282C6
:1017F000A0911E03B0911F03ED0130E020E010978F
:10180000A1F420813181820F931F20911C0330911C
:101810001D032817390709F061C0F0931D03E093F9
:101820001C03DF91CF910895EA01CE17DF07E8F599
:101830004A815B819E0141155105B1F7E901FB83A6
:10184000EA8349915991C40FD51FEC17FD0761F444
:10185000808191810296840F951FE9019983888385
:10186000828193819B838A83F0E0E0E012968D91E0
:101870009C9113970097B9F52D913C911197CD014B
:101880000296820F931F20911C0330911D0328178D
:10189000390739F6309751F510921F0310921E0345
:1018A000B0931D03A0931C03BCCFD383C28340819C
:1018B0005181840F951FC817D90761F44E5F5F4FA0
:1018C00088819981480F591F518340838A819B8168
:1018D000938382832115310509F0B0CFF0931F0364
:1018E000E0931E039ECFFD01DC01C0CF1382128264
:0618F000D7CFF894FFCFF2
:1018F60053756E6461790000000000004D6F6E64E0
:101906006179000000000000547565736461790018
:10191600000000005765646E65736461790000001D
:1019260054687572736461790000000046726964D8
:10193600617900000000000053617475726461797A
:101946000000000000002003800000000000A50148
:1019560005013201F7016301410155010000000054
:10196600C4039703F3036D0390037D036E03436F74
:10197600756C646E27742066696E64205254430049
:101986000D0A00525443206973204E4F542072753D
:0E1996006E6E696E6721002028002920000077
:00000001FF
