:100000000C9453000C947B000C947B000C947B00AC
:100010000C947B000C947B000C947B000C947B0074
:100020000C947B000C947B000C947B000C947B0064
:100030000C947B000C947B000C947B000C947B0054
:100040000C94A7010C9449020C9417020C94F10132
:100050000C947B000C947B000C947B000C947B0034
:100060000C947B000C947B0000000000250028000D
:100070002B0000000000240027002A0004040404D0
:100080000404040402020202020203030303030342
:10009000010204081020408001020408102001021F
:1000A00004081020310311241FBECFEFD8E0DEBFBB
:1000B000CDBF11E0A0E0B1E0ECECF6E002C00590AD
:1000C0000D92A434B107D9F722E0A4E4B1E001C055
:1000D0001D92A832B207E1F710E0C3E5D0E004C0FA
:1000E0002197FE010E945E03C235D107C9F70E9425
:1000F0006D020C9464030C940000AF92BF92CF92F7
:10010000DF92EF92FF920F931F93CF93DF936C01D7
:100110007B018B01040F151FEB015E01AE18BF08B8
:10012000C017D10759F06991D601ED91FC9101906A
:10013000F081E02DC6010995892B79F7C501DF9182
:10014000CF911F910F91FF90EF90DF90CF90BF90D4
:10015000AF900895FC01538D448D252F30E0842FFE
:1001600090E0821B930B541710F0CF9608950197DF
:100170000895FC01918D828D981761F0A28DAE0FCC
:10018000BF2FB11D5D968C91928D9F5F9F73928F53
:1001900090E008958FEF9FEF0895FC01918D828D7F
:1001A000981731F0828DE80FF11D858D90E008954C
:1001B0008FEF9FEF0895FC01918D228D892F90E0A4
:1001C000805C9F4F821B91098F73992708958BE85C
:1001D00091E00E94DB0021E0892B09F420E0822FCE
:1001E000089580E090E0892B29F00E94E7008111BA
:1001F0000C9400000895FC01A48DA80FB92FB11D27
:10020000A35ABF4F2C91848D90E001968F7399274C
:10021000848FA689B7892C93A089B1898C9183702A
:1002200080648C93938D848D981306C00288F38923
:10023000E02D80818F7D80830895EF92FF920F9350
:100240001F93CF93DF93EC0181E0888F9B8D8C8D82
:1002500098131AC0E889F989808185FF15C09FB776
:10026000F894EE89FF896083E889F9898081837039
:10027000806480839FBF81E090E0DF91CF911F91E8
:100280000F91FF90EF900895F62E0B8D10E00F5F09
:100290001F4F0F731127E02E8C8D8E110CC00FB6DF
:1002A00007FCFACFE889F989808185FFF5CFCE0177
:1002B0000E94FB00F1CFEB8DEC0FFD2FF11DE35AF7
:1002C000FF4FF0829FB7F8940B8FEA89FB898081FA
:1002D0008062CFCFCF93DF93EC01888D8823B9F074
:1002E000AA89BB89E889F9898C9185FD03C0808141
:1002F00086FD0DC00FB607FCF7CF8C9185FFF2CFBE
:10030000808185FFEDCFCE010E94FB00E9CFDF9118
:10031000CF910895CF93DF93FC0101900020E9F77E
:100320003197AF01481B590BBC018BE891E00E944B
:100330007D00EC0142E050E062E171E08BE891E089
:100340000E947D008C0F9D1FDF91CF9108951F9219
:100350000F920FB60F9211242F933F938F939F9379
:10036000AF93BF938091870190918801A0918901FB
:10037000B0918A013091860123E0230F2D3758F583
:100380000196A11DB11D2093860180938701909352
:100390008801A0938901B0938A0180918201909194
:1003A0008301A0918401B09185010196A11DB11D29
:1003B0008093820190938301A0938401B09385017F
:1003C000BF91AF919F918F913F912F910F900FBE51
:1003D0000F901F90189526E8230F0296A11DB11DBE
:1003E000D2CF1F920F920FB60F9211242F933F93EB
:1003F0004F935F936F937F938F939F93AF93BF932D
:10040000EF93FF938BE891E00E94FB00FF91EF9147
:10041000BF91AF919F918F917F916F915F914F911C
:100420003F912F910F900FBE0F901F9018951F9224
:100430000F920FB60F9211242F938F939F93EF93E8
:10044000FF93E0919B01F0919C018081E091A101DB
:10045000F091A20182FD1BC090818091A4018F5F69
:100460008F732091A501821741F0E091A401F0E083
:10047000E557FE4F958F8093A401FF91EF919F91D7
:100480008F912F910F900FBE0F901F901895808124
:10049000F4CF1F920F920FB60F9211248F939F9358
:1004A000EF93FF938EB5E0914401EC3368F491E053
:1004B0009E0F90934401F0E0EB5BFE4F80838D3004
:1004C00019F481E080938101FF91EF919F918F91C9
:1004D0000F900FBE0F901F901895789484B582608E
:1004E00084BD84B5816084BD85B5826085BD85B5D8
:1004F000816085BD80916E00816080936E00109256
:1005000081008091810082608093810080918100D0
:100510008160809381008091800081608093800061
:100520008091B10084608093B1008091B0008160BF
:100530008093B00080917A00846080937A008091EB
:100540007A00826080937A0080917A008160809343
:100550007A0080917A00806880937A001092C100BE
:10056000E0919B01F0919C0182E08083E0919701F2
:10057000F09198011082E0919901F0919A0180E147
:1005800080831092A301E0919F01F091A00186E089
:100590008083E0919D01F0919E0180818061808344
:1005A000E0919D01F0919E01808188608083E091BF
:1005B0009D01F0919E01808180688083E0919D0182
:1005C000F0919E0180818F7D8083ECE9F0E02491A1
:1005D000E8E8F0E08491882399F090E0880F991F73
:1005E000FC01EE58FF4FA591B491FC01E859FF4F73
:1005F000859194918FB7F894EC91E22BEC938FBF97
:100600008CB580648CBD10924401109281018CB530
:1006100080688CBD85E191E00E948A01C0E0D0E055
:10062000809181018823A1F0109281018091450180
:10063000843521F487E291E00E948A01809145018E
:10064000843421F485E391E00E948A0110924401F0
:10065000209731F30E94E700882311F30E940000E5
:10066000DFCFEBE8F1E01382128288EE93E0A0E0A6
:10067000B0E084839583A683B78384E091E091837F
:10068000808385EC90E09587848784EC90E0978761
:10069000868780EC90E0918B808B81EC90E0938B4F
:1006A000828B82EC90E0958B848B86EC90E0978B2C
:1006B000868B118E128E138E148E0895EE0FFF1FEF
:0C06C0000590F491E02D0994F894FFCF10
:1006CC00000000001D017D00AA006A01DB00B900DA
:1006DC00CD000D0A00746869732069732074686515
:1006EC0020536C6176650074657374207265636960
:1006FC006576656400646174612072656369657612
:04070C006564000020
:00000001FF
